:020000040800F2
:10000000C006002089010008690D0008090D0008DC
:10001000650D0008D1020008CD0F000800000000A7
:10002000000000000000000000000000C90D0008F2
:10003000D502000800000000990D0008FD0D000821
:10004000A3010008A3010008A3010008A301000800
:10005000A3010008A3010008A3010008A3010008F0
:10006000A3010008A3010008A3010008A3010008E0
:10007000A3010008A3010008A3010008A3010008D0
:10008000A3010008A3010008A3010008A3010008C0
:10009000A3010008A3010008A3010008A3010008B0
:1000A000A3010008A3010008A3010008A3010008A0
:1000B000A3010008A3010008A3010008A301000890
:1000C000A3010008A3010008A3010008A301000880
:1000D000A3010008A3010008A3010008A301000870
:1000E000A3010008A3010008A301000800F002F822
:1000F00000F03AF80AA090E8000C82448344AAF188
:100100000107DA4501D100F02FF8AFF2090EBAE885
:100110000F0013F0010F18BFFB1A43F0010318473B
:10012000600F0000800F0000103A24BF78C878C12B
:10013000FAD8520724BF30C830C144BF04680C60ED
:10014000704700000023002400250026103A28BF35
:1001500078C1FBD8520728BF30C148BF0B60704739
:100160001FB51FBD10B510BD00F077F81146FFF7A1
:10017000F7FF00F057FF00F095F803B4FFF7F2FF28
:1001800003BC00F09DF8000009488047094800477B
:10019000FEE7FEE7FEE7FEE7FEE7FEE7FEE7FEE737
:1001A000FEE7FEE704480549054A064B7047000094
:1001B000610E0008ED000008C0000020C00600200D
:1001C000C0020020C002002010B5431C02E010F85D
:1001D000011B71B18107FAD14FF0013202C88C1AAC
:1001E0008C4314EAC211F9D0C01A0A0603D0C01E0B
:1001F00010BDC01A10BD0A0401D0801E10BD090236
:10020000FCD0401E10BD4FF0000200B513469446CE
:100210009646203922BFA0E80C50A0E80C50B1F15E
:100220002001BFF4F7AF090728BFA0E80C5048BF72
:100230000CC05DF804EB890028BF40F8042B08BF10
:10024000704748BF20F8022B11F0804F18BF00F80C
:10025000012B7047704770477047754600F02CF8C7
:10026000AE4605006946534620F00700854618B0A3
:1002700020B5FFF797FFBDE820404FF000064FF094
:1002800000074FF000084FF0000BAC46ACE8C00987
:10029000ACE8C009ACE8C009ACE8C00921F007012E
:1002A0008D46704710B50446AFF300802046BDE888
:1002B0001040FFF762BF00000048704710000020A8
:1002C00001491820ABBEFEE726000200704700007F
:1002D000FEE7000070470000EFF3108072B600BF29
:1002E000FEE70000B0B5044600F01EF9054640F2F6
:1002F0000800C2F200000078611C18BF044400BF6F
:1003000000F012F9401BA042FAD3B0BD2DE9F04F26
:1003100084B00E680290002E00F0038140F20C4E73
:1003200040F2004741F200420298C4F2010EC4F2CA
:100330000107C4F201020423002401254FF0000A42
:100340004FF00009904208BF032300930AE000BF6A
:1003500001250E680AF1010A36FA0AF204F10404D2
:1003600000F0DF8005FA0AFB16EA0B08F1D04A68B4
:100370004FF6FF73C1F210039A4211DC122A54D8CF
:100380000298DFE802F0350A43475353535353535F
:10039000535353535353534A4E00D1F80C9045E0F6
:1003A0004FF6FF73C1F221039A4210DC0023C1F221
:1003B000110302989A421BD00023C1F212039A4201
:1003C00016D00023C1F221039A4211D02EE000235F
:1003D000C1F2220302989A420AD00023C1F23103EB
:1003E0009A4205D00023C1F232039A421ED100BFC7
:1003F0008A6842B1012A14BFC0F814B0C0F810B026
:100400004FF0080912E04FF004090FE0CA6802F14A
:1004100008090BE04FF0000908E0CA6802F104097E
:1004200004E0CA6802F10C0900E002982246034683
:10043000B8F5807F24BF203A04331D684FF00F0CBD
:100440000CFA02F6B54309FA02F22A431A60CA7995
:10045000D2067FF57DAF41F21803CDF80490C4F2C7
:1004600002031A68F34642F001021A601A684FEA62
:100470009A0E02F001020392039AA7F57E72B94622
:1004800052F82E3004F00C0740F600060CFA07F57F
:10049000C4F20106B04223EA050C10D040F6004336
:1004A000C4F2010398420CD041F20003C4F20103EC
:1004B0009842009B4FF0010508BF022303E0002390
:1004C00000E001230125BB4043EA0C0342F82E3033
:1004D0004E684F46F202D9F8082054BF22EA0802BB
:1004E00042EA0802DE46DDF80490BA60DEF8002039
:1004F000B30254BF22EA080242EA0802CEF8002002
:100500007A68B30354BF22EA080242EA08027A601A
:100510003A68F30354BF22EA080242EA08023A604A
:1005200017E704B0BDE8F08F40F2B800C2F2000057
:100530000068704740F2080040F2B801C2F20000C3
:10054000C2F2000100780A68104408607047000099
:1005500080B542F20000C4F20200016841F01001CF
:100560000160032000F062F80F2000F005F800F0B1
:100570002BF8002080BD0000B0B540F20802C2F2A6
:10058000000240F200011278C2F200014FF47A73C7
:100590000968B3FBF2F20446B1FBF2F1084600F041
:1005A000E5FA0F2C4FF001050CD858B94FF0FF3089
:1005B00021460022002500F029F840F20C00C2F28A
:1005C000000004602846B0BD82B041F21800C4F2B9
:1005D00002000168022241F001010160016801F09E
:1005E000010101910199416841F0805141604068E9
:1005F00000F08050009000980420C4F201000168CF
:1006000062F31A61016002B07047000070B51446D1
:100610000D46064600F0DCFC2946224600F0A6FB0B
:100620000146304600F0DCFC70BD000080B500F0F3
:10063000E9FC80BD2DE9F04381B0002800F08780FF
:1006400042F20008C4F202080446D8F800000D4641
:1006500000F0070088420CD2D8F8000020F0070014
:100660002843C8F80000D8F8000000F00700A842AE
:100670006DD1206841F204098107C4F2020917D53F
:10068000410705D5D9F8001041F4E061C9F8001020
:10069000010705D5D9F8001041F46051C9F80010E0
:1006A000D9F80010A26821F0F0011143C9F8001038
:1006B000C00745D1D8F8000000F00700A8420CD9C7
:1006C000D8F8000020F007002843C8F80000D8F848
:1006D000000000F00700A84239D12068410707D583
:1006E000D9F80010E26821F4E0611143C9F8001064
:1006F000000708D5D9F80000216920F4605040EACD
:10070000C100C9F8000000F077F8D9F8001041F2F4
:100710006402C1F30311C0F60002515C40F2000212
:1007200020FA01F140F20C00C2F200000068C2F2AF
:1007300000021160FFF720FF002001B0BDE8F08348
:100740006068012807D159F8041C89030CD40120E2
:1007500001B0BDE8F08359F8041C022802D18901D8
:10076000F5D501E08907F2D5D9F8001021F0030191
:100770000843C9F80000FFF7D7FE064641F2883764
:10078000D9F80000616800F00C00B0EB810F91D047
:10079000FFF7CAFE801BB842F2D9032001B0BDE8C2
:1007A000F083000040F20000C2F2000000687047D1
:1007B00080B5FFF7F7FF41F20401C4F202010968B6
:1007C00041F27402C1F30221C0F60002515CC8403C
:1007D00080BD000080B5FFF7E5FF41F20401C4F2DF
:1007E0000201096841F27402C1F3C221C0F600029D
:1007F000515CC84080BD000041F2040CC4F2020C00
:10080000DCF8003003F00C00082841F20020C0F2B0
:100810007A0018BF7047C3F383420AA18A5CD903E8
:1008200005D440F60010C0F23D0050437047DCF89C
:10083000001008A3C1F34041595C5043B0FBF1F0F4
:10084000704700BF02030405060708090A0B0C0DD8
:100850000E0F1010010200002DE9F04182B00028B7
:1008600000F0C4800446007841F20006C007C4F2DC
:10087000020643D0706800F00C00042817D070689E
:1008800000F00C00082802D17068C0030FD465681E
:100890009DB1B5F5803F06D03068B5F5A02F0DD1DC
:1008A00040F480203060306840F480300CE03068E4
:1008B000800323D5606808BB98E0306820F480305E
:1008C0003060306820F480203060FFF72DFE002D6E
:1008D000054610D03068800310D4FFF725FE401B7A
:1008E0006428F7D908E100BFFFF71EFE401B64280B
:1008F0004FF0030077D830688003F5D42078800764
:1009000018D5706810F00C0F07D0706800F00C005C
:10091000082826D17068C00323D43068800702D528
:100920002069012862D13068616920F0F80040EA4E
:10093000C1003060207800073DD5A06938B30020A1
:10094000C4F242200121C0F88014FFF7EDFD0546F6
:10095000706A80072DD4FFF7E7FD401B0228F7D906
:10096000CAE02069002840F20000C4F2422000F0F2
:100970009A8001210160FFF7D7FD054630688007A6
:10098000D1D4FFF7D1FD401B0228F7D9B4E00020F5
:10099000C4F242200021C0F88014FFF7C5FD0546CF
:1009A000706A800707D5FFF7BFFD401B0228F7D903
:1009B000A2E000F0F3F9207840071BD4E5698DB17F
:1009C000706800F00C0008284CD1012D0ED0706822
:1009D000216A00F480328A4208D1616A00F4701002
:1009E000884203D1002002B0BDE8F081012002B0AE
:1009F000BDE8F081F069C0000BD4F0694FF0010848
:100A000040F08050F061F06900F080500190019852
:100A100001E04FF0000847F20007C4F20007386811
:100A2000C00510D4386840F480703860FFF77CFD52
:100A3000054600BF3868C00505D4FFF775FD401BAB
:100A40006428F7D958E0E568002D3DD0012D05D088
:100A5000306A052D39D140F004003062306A40F030
:100A6000010038E00027C4F2422700203866FFF773
:100A70005BFD022D05460BD13068800154D5FFF790
:100A800053FD401B02284FF00300F5D9ABE700BF30
:100A900030688001A6D5FFF747FD401B02284FF0C4
:100AA0000300F5D99FE700210160FFF73DFD0546F2
:100AB000306880077FF53EAFFFF736FD401B022808
:100AC0004FF00300F4D98EE7306A20F00100306265
:100AD000306A20F004003062FFF726FD002D054645
:100AE00041F2883714D000BF306A800713D4FFF773
:100AF0001BFD401BB842F7D9032002B0BDE8F081CE
:100B0000FFF712FD401BB8424FF003003FF66BAFFA
:100B1000306A8007F4D4B8F1000F3FF44FAFF069AA
:100B200020F08050F06149E7206AB0F5803F05D1A0
:100B30007168A26821F40031114371607168626AC2
:100B400021F4741110430843706001203866FFF7E8
:100B5000EBFC0446306880013FF544AFFFF7E4FC4E
:100B6000001B02284FF00300F4D93CE780B500F0E9
:100B70002DF980BD002804BF0120704710B5044640
:100B800090F8410028B9002084F84000204600F089
:100B900021F8242084F841002068C16821F4005124
:100BA000C160204600F086F92068016921F4904177
:100BB0000161416921F02A014161C16841F400519C
:100BC000C16000202021606484F8411084F8421044
:100BD000606310BD70B586B0002640F6000405962F
:100BE000CDE90366C4F20104006804F5405188426F
:100BF000029601D006B070BD41F21800C4F20200A6
:100C0000016802AD41F480410160016801F4804156
:100C100001910199016841F00401016000682946D1
:100C200000F00400019001984FF40070029002203F
:100C30000390032005902046FFF768FB4FF4806087
:100C4000CDE90206204629460496FFF75FFB06B071
:100C500070BD00002DE9F041044690F841002028C5
:100C60001CBF0220BDE8F0810E4600294FF00100B4
:100C700042D01746002A08BFBDE8F0814FF00008B7
:100C800021201D46C4F8448084F84100FFF74CFC45
:100C9000A784E784A1680746B1F5805F0DD120697C
:100CA000002814BF3046B046064606E016F8010B91
:100CB00021684860E08C0138E084E08C80B12046F7
:100CC00080213A462B4600F03DF9B8B9002EEDD10F
:100CD00038F8020B21686FF35F2048600026E9E7CF
:100CE000204640213A462B4600F02CF9202184F87A
:100CF0004110002818BF0320BDE8F081202084F8AF
:100D000041000320BDE8F081FEE7000081B041F220
:100D10001800C4F20200016841F00401016000689B
:100D200000F004000090009801B0704780B540F2D8
:100D3000700043F60001C2F20000C4F2010100237A
:100D40004FF00C0C4FF4E13280E80E00C0E90333A1
:100D5000C0E905C3C361FFF70DFF002808BF80BDD0
:100D6000FFF7BAFAFEE70000FEE7000000F0070018
:100D700080F00703042B28BF04234FF0FF3C033807
:100D80000CFA03F338BF0020994381400CFA00F0BD
:100D900022EA0000084370477047000081B040F22B
:100DA0000000C2F20000006844F6D351C1F26201B3
:100DB000A0FB0101480A009000BF0098411E0028D6
:100DC0000091F9D101B0704770470000B0B501380B
:100DD0000024B4EB106F1CBF0120B0BD4EF2100513
:100DE000CEF2000568604FF0FF300F2100F0F8F8F8
:100DF0000720AC6028602046B0BD000080B5FFF73A
:100E000099FB80BD70B590B006AC20462821FFF755
:100E1000FAF901200A901020002502260B904FF4C9
:100E200060100696CDE90D650F9020460595CDE939
:100E30000355CDE90155FFF70FFD78B90F20CDE936
:100E400001064FF480600395CDE9040501A8022155
:100E5000FFF7F0FB002804BF10B070BDFFF73CFAAD
:100E600070470000016851E8031F026821F4907187
:100E700042E80313002BF5D1016851E8051F026811
:100E800021F0010142E80513002BF5D1016B012986
:100E90000AD100BF016851E8031F026821F0100168
:100EA00042E80313002BF5D1202180F842100021E5
:100EB0000163704710B504460068D4E902C2236993
:100EC000016921F4405111430161616943EA0C0257
:100ED0001143C26841F20C639A431143C1604169F6
:100EE000A26921F44071114343F60002C4F20102E9
:100EF0009042416102D0FFF75BFC01E0FFF76AFC22
:100F00006268192148439100B0FBF1F048F21F518B
:100F1000C5F2EB11A0FB01235A096FF0630302FB3A
:100F20000300322303EB0010A0FB0101F02303EACE
:100F30005113206803EB0212C1F343111144816085
:100F400010BD00002DE9F04182B004460068006841
:100F50000840884203D1002002B0BDE8F0811D4660
:100F60000E4690465F1C04E0206800683040B042A6
:100F700028D0002FF8D0FFF7D7FA01464FF0030032
:100F80000DB3A1EB0801A9421DD82068C16849072B
:100F9000EAD5402EE8D0802EE6D001680907E3D5D7
:100FA0000025019501680191406801900198204653
:100FB000FFF758FF0820606484F84050012002B019
:100FC000BDE8F081002002B0BDE8F081FEE700003E
:100FD0004EF60C50CEF200000068C0F302207047BD
:100FE0004EF6145300F00F02CEF2000309011A442A
:100FF00000F16043B0F1FF3FC8BF03F564421170D8
:10100000704700004EF60C51CEF200010A684FF610
:10101000FF031A4060F30A2242F0806040F0FD7046
:1010200008607047FFF794FAFFF7ECFEFFF76EFEDB
:10103000FFF77CFE40F2040640F27004C2F20006A4
:10104000C2F2000435682846FFF7BEF882B2204697
:1010500029464FF4FA73FFF7FDFD4FF47A70FFF75E
:1010600041F9EFE700000000000000000102030466
:1010700006070809000000000102030461000000E7
:10108000A010000800000020100000002801000847
:10109000B010000810000020B00600004401000855
:1010A00000127A007C10000801000000100000000F
:04000005080000ED02
:00000001FF
