:020000040800F2
:100000009806002089010008BD0C0008ED0A0008D0
:10001000B90C000891020008BD0D000800000000A6
:100020000000000000000000000000001D0D00089E
:100030009502000800000000ED0C0008510D0008BA
:10004000A3010008A3010008A3010008A301000800
:10005000A3010008A3010008A3010008A3010008F0
:10006000A3010008A3010008A3010008A3010008E0
:10007000A3010008A3010008A3010008A3010008D0
:10008000A3010008A3010008A3010008A3010008C0
:10009000A3010008A3010008A3010008A3010008B0
:1000A000A3010008A3010008A3010008A3010008A0
:1000B000A3010008A3010008A3010008A301000890
:1000C000A3010008A3010008A3010008A301000880
:1000D000A3010008A3010008A3010008A301000870
:1000E000A3010008A3010008A301000800F002F822
:1000F00000F03AF80AA090E8000C82448344AAF188
:100100000107DA4501D100F02FF8AFF2090EBAE885
:100110000F0013F0010F18BFFB1A43F0010318473B
:10012000700D0000900D0000103A24BF78C878C10F
:10013000FAD8520724BF30C830C144BF04680C60ED
:10014000704700000023002400250026103A28BF35
:1001500078C1FBD8520728BF30C148BF0B60704739
:100160001FB51FBD10B510BD00F058F81146FFF7C0
:10017000F7FF00F04FFE00F076F803B4FFF7F2FF50
:1001800003BC00F07DF8000009488047094800479B
:10019000FEE7FEE7FEE7FEE7FEE7FEE7FEE7FEE737
:1001A000FEE7FEE704480549054A064B7047000094
:1001B000B90D0008ED000008980000209806002006
:1001C00098020020980200204FF0000200B513466C
:1001D00094469646203922BFA0E80C50A0E80C5067
:1001E000B1F12001BFF4F7AF090728BFA0E80C5018
:1001F00048BF0CC05DF804EB890028BF40F8042B11
:1002000008BF704748BF20F8022B11F0804F18BF7D
:1002100000F8012B7047704770477047754600F033
:100220002BF8AE4605006946534620F00700854688
:1002300018B020B5FFF7B6FFBDE820404FF000062C
:100240004FF000074FF000084FF0000BAC46ACE851
:10025000C009ACE8C009ACE8C009ACE8C00921F0AD
:1002600007018D46704710B50446AFF30080204665
:10027000BDE81040FFF781BF004870471000002024
:1002800001491820ABBEFEE72600020070470000BF
:10029000FEE7000070470000EFF3108072B600BF69
:1002A000FEE70000B0B5044600F024F9054640F230
:1002B0000400C2F200000078611C18BF044400BFB3
:1002C00000F018F9401BA042FAD3B0BD2DE9F04F61
:1002D00084B00E680290002E00F0038140F20C4EB4
:1002E00040F2004741F200420298C4F2010EC4F20B
:1002F0000107C4F201020423002401254FF0000A83
:100300004FF00009904208BF032300930AE000BFAA
:1003100001250E680AF1010A36FA0AF204F1040412
:1003200000F0DF8005FA0AFB16EA0B08F1D04A68F4
:100330004FF6FF73C1F210039A4211DC122A54D80F
:100340000298DFE802F0350A43475353535353539F
:10035000535353535353534A4E00D1F80C9045E036
:100360004FF6FF73C1F221039A4210DC0023C1F261
:10037000110302989A421BD00023C1F212039A4241
:1003800016D00023C1F221039A4211D02EE000239F
:10039000C1F2220302989A420AD00023C1F231032B
:1003A0009A4205D00023C1F232039A421ED100BF07
:1003B0008A6842B1012A14BFC0F814B0C0F810B066
:1003C0004FF0080912E04FF004090FE0CA6802F18B
:1003D00008090BE04FF0000908E0CA6802F10409BF
:1003E00004E0CA6802F10C0900E0029822460346C4
:1003F000B8F5807F24BF203A04331D684FF00F0CFE
:100400000CFA02F6B54309FA02F22A431A60CA79D5
:10041000D2067FF57DAF41F21803CDF80490C4F207
:1004200002031A68F34642F001021A601A684FEAA2
:100430009A0E02F001020392039AA7F57E72B94662
:1004400052F82E3004F00C0740F600060CFA07F5BF
:10045000C4F20106B04223EA050C10D040F6004376
:10046000C4F2010398420CD041F20003C4F201032C
:100470009842009B4FF0010508BF022303E00023D0
:1004800000E001230125BB4043EA0C0342F82E3073
:100490004E684F46F202D9F8082054BF22EA0802FB
:1004A00042EA0802DE46DDF80490BA60DEF8002079
:1004B000B30254BF22EA080242EA0802CEF8002042
:1004C0007A68B30354BF22EA080242EA08027A605B
:1004D0003A68F30354BF22EA080242EA08023A608B
:1004E00017E704B0BDE8F08F002A08BF09040161D6
:1004F0007047000040F29000C2F2000000687047B0
:1005000040F2040040F29001C2F20000C2F2000189
:1005100000780A68104408607047000080B542F215
:100520000000C4F20200016841F0100101600320E4
:1005300000F062F80F2000F005F800F02BF8002022
:1005400080BD0000B0B540F20402C2F2000240F2E9
:1005500000011278C2F200014FF47A730968B3FB0C
:10056000F2F20446B1FBF2F1084600F0BBFA0F2CA0
:100570004FF001050CD858B94FF0FF30214600224A
:10058000002500F029F840F20800C2F200000460E3
:100590002846B0BD82B041F21800C4F202000168E2
:1005A000022241F001010160016801F001010191A5
:1005B0000199416841F080514160406800F08050ED
:1005C000009000980420C4F20100016862F31A61EF
:1005D000016002B07047000070B514460D46064633
:1005E00000F0EEFB2946224600F06AFB0146304649
:1005F00000F0EEFB70BD000080B500F0FBFB80BD9D
:100600002DE9F04381B0002800F0878042F2000815
:10061000C4F202080446D8F800000D4600F00700B6
:1006200088420CD2D8F8000020F007002843C8F810
:100630000000D8F8000000F00700A8426DD1206843
:1006400041F204098107C4F2020917D5410705D513
:10065000D9F8001041F4E061C9F80010010705D590
:10066000D9F8001041F46051C9F80010D9F8001011
:10067000A26821F0F0011143C9F80010C00745D16C
:10068000D8F8000000F00700A8420CD9D8F8000004
:1006900020F007002843C8F80000D8F8000000F058
:1006A0000700A84239D12068410707D5D9F80010C2
:1006B000E26821F4E0611143C9F80010000708D591
:1006C000D9F80000216920F4605040EAC100C9F85F
:1006D000000000F04DF8D9F8001040F68062C1F338
:1006E0000311C0F60002515C40F2000220FA01F151
:1006F00040F20800C2F200000068C2F2000211607D
:10070000FFF720FF002001B0BDE8F08360680128FA
:1007100007D159F8041C89030CD4012001B0BDE8AD
:10072000F08359F8041C022802D18901F5D501E0B3
:100730008907F2D5D9F8001021F003010843C9F860
:100740000000FFF7D7FE064641F28837D9F80000CF
:10075000616800F00C00B0EB810F91D0FFF7CAFE8A
:10076000801BB842F2D9032001B0BDE8F08300003D
:1007700041F2040CC4F2020CDCF8003003F00C006F
:10078000082841F20020C0F27A0018BF7047C3F376
:1007900083420AA18A5CD90305D440F60010C0F256
:1007A0003D0050437047DCF8001008A3C1F34041FE
:1007B000595C5043B0FBF1F0704700BF02030405E1
:1007C000060708090A0B0C0D0E0F1010010200009D
:1007D0002DE9F04182B0002800F0C4800446007882
:1007E00041F20006C007C4F2020643D0706800F070
:1007F0000C00042817D0706800F00C00082802D103
:100800007068C0030FD465689DB1B5F5803F06D010
:100810003068B5F5A02F0DD140F4802030603068ED
:1008200040F480300CE03068800323D5606808BB5A
:1008300098E0306820F480303060306820F4802008
:100840003060FFF757FE002D054610D0306880035A
:1008500010D4FFF74FFE401B6428F7D908E100BF12
:10086000FFF748FE401B64284FF0030077D830683C
:100870008003F5D42078800718D5706810F00C0F2D
:1008800007D0706800F00C00082826D17068C003FB
:1008900023D43068800702D52069012862D13068EE
:1008A000616920F0F80040EAC1003060207800075C
:1008B0003DD5A06938B30020C4F242200121C0F820
:1008C0008014FFF717FE0546706A80072DD4FFF7E6
:1008D00011FE401B0228F7D9CAE02069002840F227
:1008E0000000C4F2422000F09A8001210160FFF76D
:1008F00001FE054630688007D1D4FFF7FBFD401BA1
:100900000228F7D9B4E00020C4F242200021C0F848
:100910008014FFF7EFFD0546706A800707D5FFF7E3
:10092000E9FD401B0228F7D9A2E000F0E1F92078A8
:1009300040071BD4E5698DB1706800F00C000828F1
:100940004CD1012D0ED07068216A00F480328A42A9
:1009500008D1616A00F47010884203D1002002B00F
:10096000BDE8F081012002B0BDE8F081F069C0006F
:100970000BD4F0694FF0010840F08050F061F0694D
:1009800000F080500190019801E04FF0000847F21C
:100990000007C4F200073868C00510D4386840F476
:1009A00080703860FFF7A6FD054600BF3868C005B7
:1009B00005D4FFF79FFD401B6428F7D958E0E56890
:1009C000002D3DD0012D05D0306A052D39D140F0E4
:1009D00004003062306A40F0010038E00027C4F2C1
:1009E000422700203866FFF785FD022D05460BD112
:1009F0003068800154D5FFF77DFD401B02284FF081
:100A00000300F5D9ABE700BF30688001A6D5FFF73A
:100A100071FD401B02284FF00300F5D99FE700212C
:100A20000160FFF767FD0546306880077FF53EAF40
:100A3000FFF760FD401B02284FF00300F4D98EE75A
:100A4000306A20F001003062306A20F00400306229
:100A5000FFF750FD002D054641F2883714D000BF46
:100A6000306A800713D4FFF745FD401BB842F7D921
:100A7000032002B0BDE8F081FFF73CFD401BB84207
:100A80004FF003003FF66BAF306A8007F4D4B8F143
:100A9000000F3FF44FAFF06920F08050F06149E75C
:100AA000206AB0F5803F05D17168A26821F4003159
:100AB000114371607168626A21F474111043084334
:100AC000706001203866FFF715FD0446306880012C
:100AD0003FF544AFFFF70EFD001B02284FF0030067
:100AE000F4D93CE780B500F01BF980BDFEE70000BB
:100AF00010B504464068618B0022FFF7F5FC3220F8
:100B0000FFF7D0FB2046382100F076F80520FFF7EC
:100B1000C9FB20460C2100F06FF80520FFF7C2FB4F
:100B20002046062100F068F80520FFF7BBFB10BD4A
:100B3000B0B50A78002A08BFB0BD04464D1E00BFFC
:100B4000D1B2204600F05EF8AA780135002AF7D12C
:100B5000B0BD0000B0B50D46012A044603D8606858
:100B6000218BFFF7C1FC2068218905F00102FFF706
:100B7000BBFC20686189C5F34002FFF7B5FC206823
:100B8000A189C5F38002FFF7AFFC2068E189C5F3B6
:100B9000C002FFF7A9FC2068218AC5F30012FFF705
:100BA000A3FC2068618AC5F34012FFF79DFC206812
:100BB000A18AC5F38012FFF797FC2068E18AEA0951
:100BC000FFF792FC6068A18B0022FFF78DFC0120EB
:100BD000FFF768FB6068A18B0122FFF785FC01200D
:100BE000FFF760FB6068A18B0022FFF77DFC01200E
:100BF000FFF758FBB0BD000080B50022FFF7AAFF49
:100C000080BD000080B50122FFF7A4FF80BD000079
:100C10002DE9F04786B0002741F21800CDE90477AE
:100C2000CDE90277C4F20200016840F6000441F009
:100C3000200101600168C4F2010401F0200101916A
:100C400001990168002241F0040101600168FF265A
:100C500001F0040101910199016841F0080101606E
:100C60000068FF2100F00800019001982046FFF77E
:100C70003BFC04F58065284640F20341002240F227
:100C80000348FFF731FC029602AE4FF001094FF026
:100C9000020A20463146CDE90397CDF814A0FFF7AC
:100CA00015FB28463146CDE90289CDE9047AFFF7E4
:100CB0000DFB06B0BDE8F087FEE70000FEE7000090
:100CC00000F0070080F00703042B28BF04234FF037
:100CD000FF3C03380CFA03F338BF002099438140EE
:100CE0000CFA00F022EA0000084370477047000049
:100CF00081B040F20000C2F20000006844F6D35117
:100D0000C1F26201A0FB0101480A009000BF0098F7
:100D1000411E00280091F9D101B0704770470000D2
:100D2000B0B501380024B4EB106F1CBF0120B0BD7A
:100D30004EF21005CEF2000568604FF0FF300F2133
:100D400000F046F80720AC6028602046B0BD0000E7
:100D500080B5FFF7D5FB80BD70B590B006AC2046DE
:100D60002821FFF731FA002501204FF48031069049
:100D7000CDE907150A9002264FF4E010CDE90D6188
:100D80000F9020460595CDE90355CDE90155FFF7B4
:100D90001FFD78B90F20CDE901064FF4806003955F
:100DA000CDE9040501A80221FFF72AFC002804BFB1
:100DB00010B070BDFFF770FA70470000FEE700004A
:100DC0004EF60C50CEF200000068C0F302207047CF
:100DD0004EF6145300F00F02CEF2000309011A443C
:100DE00000F16043B0F1FF3FC8BF03F564421170EA
:100DF000704700004EF60C51CEF200010A684FF623
:100E0000FF031A4060F30A2242F0806040F0FD7058
:100E10000860704740F2700440F60000C2F200041F
:100E2000C4F2010040F2040E102340F2400C0122F3
:100E300000F58061C0F2080EC0F22003C0F2800C01
:100E400022834FF0021284E807404FF48060C4E927
:100E5000043CA083FFF762FBFFF77EFFFFF7D8FE9D
:100E60002046FFF745FE03A12046FFF761FE00BFC5
:100E7000FEE700BF48656C6C6F20576F726C6400B2
:100E8000000000000000000001020304060708093A
:100E9000B00E00080000002010000000280100082B
:100EA000C00E000810000020880600004401000861
:100EB00000127A0001000000100000000000000095
:04000005080000ED02
:00000001FF
